:020000040800F2
:10000000980B0024AD02000851690008C96000087F
:100010002969000839080008C97F000800000000AD
:10002000000000000000000000000000296C000833
:10003000890E00080000000099690008016D0008A1
:10004000C7020008C7020008C7020008C70200086C
:10005000C7020008C7020008C7020008C70200085C
:10006000C7020008C7020008C702000849080008C4
:1000700059080008C7020008690800087908000844
:10008000C7020008C7020008C7020008C70200082C
:10009000C7020008C7020008C7020008C70200081C
:1000A000C7020008C7020008C7020008C70200080C
:1000B000996E0008A96E0008B96E0008C702000812
:1000C000C7020008C7020008C7020008C7020008EC
:1000D000C7020008C7020008A97F0008B97F00080E
:1000E000910E0008C702000800000000C7020008C7
:1000F000C7020008C7020008C7020008C7020008BC
:10010000C7020008C7020008C7020008C7020008AB
:10011000C702000899740008C7020008C702000857
:10012000C7020008C7020008C7020008C70200088B
:10013000C7020008C7020008C7020008C70200087B
:1001400000000000000000000000000000000000AF
:10015000C7020008C7020008C7020008C70200085B
:10016000C7020008C7020008C7020008C70200084B
:10017000C7020008C7020008C7020008C70200083B
:10018000C7020008C7020008C7020008A9740008D7
:10019000C7020008C7020008C7020008C70200081B
:1001A000C7020008C7020008C7020008C70200080B
:1001B000C7020008C7020008C7020008C7020008FB
:1001C000C7020008C7020008C7020008C7020008EB
:1001D000C7020008C7020008C7020008C7020008DB
:1001E000C7020008C7020008C7020008C7020008CB
:1001F000C7020008C7020008C7020008C7020008BB
:10020000C7020008C7020008C7020008C7020008AA
:10021000C7020008C7020008C7020008C70200089A
:10022000C7020008C7020008C7020008000000005B
:10023000C7020008C702000800000000C70200084B
:10024000C7020008C7020008C7020008C70200086A
:10025000C7020008C7020008C7020008C70200085A
:10026000C7020008C7020008C7020008C70200084A
:10027000C7020008C7020008C7020008000000000B
:10028000C7020008C7020008C702000800000000FB
:1002900000000000C7020008DFF80CD000F048FAA8
:1002A00000480047A9800008980B002406488047B2
:1002B00006480047FEE7FEE7FEE7FEE7FEE7FEE74B
:1002C000FEE7FEE7FEE7FEE7C96D000899020008B9
:1002D0002DE9F05F0546002092469B46884606467B
:1002E000814640241BE0284641464746224600F00E
:1002F00057F853465A46C01A914110D31146184632
:10030000224600F03EF82D1A67EB01084F462246C0
:100310000120002100F035F817EB00094E41201EA6
:10032000A4F10104DFDC484631462A464346BDE8D5
:10033000F09FD2B201E000F8012B491EFBD27047BA
:100340000022F6E710B513460A4604461946FFF7A1
:10035000F0FF204610BD30B50B460146002020229C
:10036000012409E021FA02F59D4205D303FA02F5C2
:10037000491B04FA02F52844151EA2F10102F1DC22
:1003800030BD202A04DB203A00FA02F10020704739
:100390009140C2F1200320FA03F3194390407047C3
:1003A000202A04DB203A21FA02F00021704721FACA
:1003B00002F3D040C2F12002914008431946704731
:1003C0002DE9FE4F804681EA0300C00F0C460090E5
:1003D00021F0004123F00045B8EB0200A94105D20D
:1003E0004046214690461C460B46024623F00040FC
:1003F000104347D0270DC7F30A00C3F30A510290F8
:10040000401A019040286BDAC3F3130040F4801BBC
:100410000098924620B10023D2EB030A63EB0B0B4A
:1004200001985946C0F140025046FFF7AAFF064620
:100430000D4650465946019A00F08CF910EB080021
:100440006141002487EA115284EAE7731A4340D0DD
:10045000009A62B3019A012A4FEA075215DC001B89
:1004600061EB02014FF0004202EA0752CDE900427F
:10047000001C41F5801132462B4600F08CF903B088
:10048000BDE8F08F40462146F9E7001B61EB020111
:10049000001C41F5801300185B412018A2F50017DD
:1004A00047EB030140EAD570B6196D4111E06D08C4
:1004B0004FEA360645EAC0754FEA0752001B61EB6A
:1004C0000201001C41F5801149084FEA3000001973
:1004D000514132462B4603B0BDE8F04F00F04CB915
:1004E0000098012240000023D0EB020263EBE0738E
:1004F000009821464FEAE074B8EB000061EB04017C
:10050000E9E783F000435BE781F0004158E72DE91C
:10051000FE4F81EA030404F0004421F000410094FE
:100520004FF0000B23F0004350EA01045ED052EA82
:1005300003045BD0C3F30A54C1F30A552C44A4F25C
:10054000F3340194A0FB0254C1F3130141F4801170
:10055000C3F3130343F4801301FB024400FB034E77
:10056000840A970A44EA815447EA8357A4FB076840
:1005700002958D0A05FB07854FEA932C04FB0C546A
:100580002705029D4FEA065847EA1637B5EB0805DE
:100590006EEB070C870E920E47EA811742EA831230
:1005A000A7FB0201B6EB0B0164EB00042B0D43EA41
:1005B0000C335E1844EB1C50DA465146E7FB02014F
:1005C000C5F313044FEA0B3343EA14534FEA0432E2
:1005D000019C43EA0603A4F10C040294009CCDE9BB
:1005E00000B400F0D8F803B0BDE8F08F0020014659
:1005F000F9E72DE9F04D81EA030404F0004B21F006
:10060000004514464FF0000A23F0004150EA05026D
:1006100020D054EA01021DD0C5F30A570246C5F3A3
:100620001303C1F31300C1F30A5640F4801543F4D9
:100630008013A7EB0608101BD64608F2FD3873EBB3
:10064000050002D308F1010801E092185B41B8F1FE
:10065000000F03DA00200146BDE8F08D00204FF4C2
:100660008011064684460EE0171B73EB050705D381
:10067000121B63EB050306434CEA010C49084FEAE1
:10068000300092185B4150EA0107EDD152EA0300B5
:1006900012D082EA040083EA0501084305D0101B4A
:1006A000AB4106D20122002306E000224FF00043B6
:1006B00002E06FF0010253101AEB06004CEB0851F8
:1006C00010EB0A0041EB0B01BDE8F04D00F054B80F
:1006D000C1F30A52C1F3130140F2FF3341F4801118
:1006E0009A4202DA00200146704740F233439A42B0
:1006F000A2F2334202DC5242FFF752BEFFF741BE84
:1007000030B5041E71F1000404DB4FF00044404298
:1007100064EB0101141E73F1000405DB1C464FF06D
:100720000043524263EB0403994208BF904230BD3C
:10073000064C074D06E0E06840F0010394E807002E
:1007400098471034AC42F6D3FFF7AAFD4C8A000854
:100750006C8A0008202A06DBCB17203A41FA02F007
:1007600043EAE07306E041FA02F3D040C2F120020E
:10077000914008431946704710B5141E73F10004E8
:1007800008DA401C41F1000192185B411A4301D183
:1007900020F0010010BD2DE9F04D92469B4611B1AD
:1007A000B1FA81F202E0B0FA80F220329046FFF70F
:1007B000E8FD04460F4640EA0A0041EA0B015346B1
:1007C0005A46084313D0114653EA010019D0C8F124
:1007D00040025046FFF7E4FD05460E465046594696
:1007E0004246FFF7CEFD084305D0012004E0204635
:1007F0003946BDE8F08D0020054346EAE0762C43FB
:1008000037430A986305E40AA0EB08000022FD0ABA
:1008100044EA47540A3002D500200146E9E70105C1
:1008200010196941DDE9084500196941BDE8F04D3D
:10083000A2E7000000000000FEE70000000000004A
:10084000B0F900007047000080B540F2D010C2F24D
:10085000004001F055F880BD80B540F24820C2F25A
:10086000004001F04DF880BD80B540F2E000C2F2DA
:10087000004001F045F880BD80B540F25810C2F24A
:10088000004001F03DF880BD40F20F420168C4F223
:100890000202914210DC6F22C4F20202914220DC7B
:1008A0003F22C4F20202914236DC1022C4F202025C
:1008B000914254D028224EE040F26F42C4F202022C
:1008C00091421ADC40F23F42C4F2020291422ADC19
:1008D00040F21042C4F20202914240D040F228425B
:1008E00039E09F22C4F20202914225DC7022C4F258
:1008F0000202914233D088222DE040F29F42C4F29E
:10090000020291421FDC40F27042C4F202029142A4
:1009100025D040F288421EE04022C4F202029142F9
:100920001DD0582217E040F24042C4F20202914228
:1009300015D040F258420EE0A022C4F202029142C9
:100940000DD0B82207E040F2B842C4F20202914250
:1009500005D040F2A042C4F2020291421AD1D0F86E
:1009600000C06FF00F024AF6AB2352FA8CF2CAF6BF
:10097000AA23A2FB033109A35F2AC1F302115B5C26
:1009800040F2FF312CEA0101C36588BF0431816563
:1009900008467047016821F0FF01F8E700061016CD
:1009A000000610160000000010B545F2574201681D
:1009B000C5F6020291420EDC45F22F42C5F6020254
:1009C000914217DC45F20842C5F60202914226D058
:1009D00045F21C421FE045F27F42C5F602029142F9
:1009E00011DC45F25842C5F60202914217D045F299
:1009F0006C4210E045F23042C5F6020291420ED040
:100A000045F2444207E045F29442C5F602029142A3
:100A100005D045F28042C5F60202914219D1017813
:100A20004CF6CD42CCF6CC4245F600030839C5F66B
:100A30000203A1FB021203F18001120903EB8203FE
:100A400002F01F0203660123416603FA02F1816688
:100A500010BD02784AF6AB23CAF6AA234FF0080E5F
:100A6000103AA2FB032340F20F42C4F202024FEA03
:100A7000131C914202F1AA04624688BF0EEB1312C6
:100A800040F60003A142C4F2020303F1800128BF33
:100A90006246D3E70000000010B50279511E072915
:100AA00088BF10BD45F2574C45F6FC0E0368C5F6ED
:100AB000020CC5F6020E63450EF1440C0EDC45F245
:100AC0002F44C5F60204A34217DC45F20844C5F6DC
:100AD0000204A34226D045F21C441FE045F27F44A5
:100AE000C5F60204A34211DC45F25844C5F60204DF
:100AF000A34217D045F26C4410E045F23044C5F6ED
:100B00000204A3420ED045F2444407E045F280447B
:100B1000C5F60204A34205D045F29444C5F602048A
:100B2000A34209D10EEB8202C2660122C0F870C056
:100B300002FA01F1416710BD40F6FC0EC4F2020E4C
:100B40000EF1440CEEE700008169B1F5005F07D0BB
:100B500079B9816A022912D0012916D079B112E03F
:100B6000816A03290FD8DFE801F0020A0210012090
:100B70007047816A03293CBF0120704703D1C06AD6
:100B8000C0F30060704700207047C06AA0F1C070D9
:100B9000B0FA80F04009704770B540F26F44D0F869
:100BA00000E0C4F20204D0F858C0A64519DC9F2525
:100BB000C4F20205AE4531DC5725C4F20205AE454C
:100BC00056DC1025C4F20205AE4500F092802825BF
:100BD000C4F20205AE4500F08C804025C4F2020547
:100BE00084E045F22F45C5F60205AE452BDC40F208
:100BF000B745C4F20205AE4548DC40F27045C4F288
:100C00000205AE4575D040F28845C4F20205AE45F6
:100C10006FD040F2A045C4F2020567E040F22745DC
:100C2000C4F20205AE4540DCA025C4F20205AE4583
:100C30005FD0B825C4F20205AE455AD040F2104547
:100C4000C4F2020552E045F26B45C5F60205AE4519
:100C50003CDC45F23045C5F60205AE4549D045F2CB
:100C60004445C5F60205AE4543D045F258453BE044
:100C70005825C4F20205AE453BD07025C4F20205EA
:100C8000AE4536D08825C4F202052FE040F2B845C3
:100C9000C4F20205AE452CD045F20845C5F6020562
:100CA000AE4526D045F21C451EE040F22845C4F270
:100CB0000205AE451DD040F24045C4F20205AE45E6
:100CC00017D040F25845C4F202050FE045F26C45DA
:100CD000C5F60205AE450CD045F29445C5F60205B1
:100CE000AE4506D045F28045C5F60205AE4540F05A
:100CF000C980456EC66E002E866E6E601CBFD0E940
:100D00001C566E60A64515DC9F24C4F20204A6455D
:100D10002BDC5724C4F20204A6454EDC1024C4F296
:100D20000204A64576D02824C4F20204A64571D058
:100D300040246BE045F22F44C5F60204A64527DCAB
:100D400040F2B744C4F20204A64542DC40F27044CB
:100D5000C4F20204A6455DD040F28844C4F2020405
:100D6000A64557D040F2A04450E040F22744C4F2D8
:100D70000204A6453CDCA024C4F20204A64549D0E6
:100D8000B824C4F20204A64544D040F210443DE029
:100D900045F26B44C5F60204A6454FDC45F23044EB
:100DA000C5F60204A6455BD045F24444C5F60204EC
:100DB000A64555D045F258444EE05824C4F20204EA
:100DC000A64527D07024C4F20204A64522D0882468
:100DD0001CE040F2B844C4F20204A6451AD045F221
:100DE0000844C5F60204A6453AD045F21C4433E057
:100DF00040F22844C4F20204A6450BD040F240441D
:100E0000C4F20204A64505D040F25844C4F20204DC
:100E1000A64537D104683F258668C06D00F01F00E5
:100E2000402E05FA00F0CCF80800206820F480205D
:100E30002060636021D0A160E26070BD45F26C4427
:100E4000C5F60204A6450BD045F28044C5F602045F
:100E5000A64505D045F29444C5F60204A64511D135
:100E60000468C66D806806F01F060125402805FA53
:100E700006F6CCF80460636002D1A260E16070BD48
:100E8000A160E26070BD000070470000000000003B
:100E900080B54FF4805001F0E7FF80BD00000000F6
:100EA00040F60004EFF3108072B6C5F6020400BFEE
:100EB0004FF400510122204602F0B2F8F8E700009A
:100EC00080B540F26A00C2F20040017801290FD1DA
:100ED0000021017040F2E45040F25801C2F200409B
:100EE000C2F20041122204F07BFF08B1FFF7D8FFE5
:100EF00040F26B00C2F200400178012911D10021BB
:100F0000017040F2E45040F20401C2F20040C2F22B
:100F10000041022205F06CF8002808BF80BDFFF7F1
:100F2000BFFF80BD0000000080B540F26B000121D2
:100F3000C2F20040017040F26A00C2F2004001704B
:100F4000462000F001F880BD80B582B040F26A0111
:100F50004FF44643C2F20041ADF805308DF807006A
:100F60000A78012A0FD10020087040F2E45040F2C4
:100F70005801C2F20040C2F20041022204F030FFE8
:100F800008B1FFF78DFF40F26B00C2F2004001781C
:100F900001290DD10021017040F2E4500DF105014D
:100FA000C2F20040032205F023F808B1FFF778FFF2
:100FB00002B080BD0000000040F26C0C0022C2F2C2
:100FC000004C0A23ACF1010111F8010F013B104460
:100FD000C2B2F9D19CF80A00801AB0FA80F0400938
:100FE000704700000000000080B5FFF729FC00EE0C
:100FF000100A9FED051BB8EEC00B20EE010B9FED14
:10100000041B20EE010B80BD000000000000003F2B
:101010000000000000806640B0B540F26C04C2F2EF
:101020000044A01CFFF7E0FF40F27800C2F200404D
:101030000568201D85ED020BFFF7D6FFA01D85ED8D
:10104000000BFFF7D1FF85ED040BB0BD00000000E1
:1010500080B540F278000021C2F200400B22006807
:10106000C0E90011C0E90211C0E9041140F27700A3
:10107000C2F20040017040F2746040F26C01C2F2B2
:101080000040C2F2004104F0ABFE80BD0000000051
:101090002DE9F041044601F0D3FF04B3054694F86E
:1010A000350002281ED140F20F472068C4F2020723
:1010B00040F26F48B842C4F2020817DC6F21C4F254
:1010C0000201884223DC3F21C4F20201884239DC5C
:1010D0001021C4F20201884258D0282151E0012099
:1010E000BDE8F081802060650120ABE240451ADC5C
:1010F00040F23F41C4F2020188422ADC40F2104132
:10110000C4F20201884241D040F2284139E09F21D7
:10111000C4F20201884225DC7021C4F20201884237
:1011200034D088212DE040F29F41C4F20201884270
:101130001FDC40F27041C4F20201884226D040F226
:1011400088411EE04021C4F2020188421ED058218D
:1011500017E040F24041C4F20201884216D040F24A
:1011600058410EE0A021C4F2020188420ED0B821FD
:1011700007E040F2B841C4F20201884206D040F2D2
:10118000A041C4F20201884240F0EA812668316839
:1011900021F01E02314641F8142B6FF080020B68DB
:1011A000404502EA03020A6019DC9F21C4F20201F1
:1011B000884231DC5721C4F20201884256DC1021FA
:1011C000C4F20201884200F091802821C4F2020199
:1011D000884200F08B804021C4F2020184E045F295
:1011E0002F41C5F6020188422BDC40F2B741C4F220
:1011F0000201884248DC40F27041C4F20201884298
:1012000074D040F28841C4F2020188426ED040F2AC
:10121000A041C4F2020167E040F22741C4F202019A
:10122000884240DCA021C4F2020188425ED0B8218D
:10123000C4F20201884259D040F21041C4F20201C6
:1012400052E045F26B41C5F6020188423CDC45F2B2
:101250003041C5F60201884248D045F24441C5F606
:101260000201884242D045F258413BE05821C4F285
:10127000020188423AD07021C4F20201884235D07E
:101280008821C4F202012FE040F2B841C4F2020109
:1012900088422BD045F20841C5F60201884225D08C
:1012A00045F21C411EE040F22841C4F2020188428E
:1012B0001CD040F24041C4F20201884216D040F2F4
:1012C0005841C4F202010FE045F26C41C5F602013B
:1012D00088420BD045F29441C5F60201884205D000
:1012E00045F28041C5F60201884269D1216EB842BB
:1012F0000A6822F480720A6010DC6F21C4F20201D5
:1013000088421CDC3F21C4F20201884232DC1021F9
:10131000C4F20201884252D028214AE040451ADC3A
:1013200040F23F41C4F2020188422ADC40F21041FF
:10133000C4F20201884242D040F2284139E09F21A4
:10134000C4F20201884225DC7021C4F20201884205
:1013500035D088212DE040F29F41C4F2020188423D
:101360001FDC40F27041C4F20201884227D040F2F3
:1013700088411EE04021C4F2020188421FD058215A
:1013800017E040F24041C4F20201884217D040F217
:1013900058410EE0A021C4F2020188420FD0B821CA
:1013A00007E040F2B841C4F20201884207D040F29F
:1013B000A041C4F20201884208BF206800E0206812
:1013C000016821F0010101603068C0070BD001F015
:1013D00037FE401B0628F7D320206065032084F8E1
:1013E000350001202EE12068B84210DC6F21C4F2E4
:1013F000020188421CDC3F21C4F20201884232DC37
:101400001021C4F20201884250D028214AE0404510
:101410001ADC40F23F41C4F2020188422ADC40F269
:101420001041C4F20201884240D040F2284139E024
:101430009F21C4F20201884225DC7021C4F202011E
:10144000884233D088212DE040F29F41C4F202014E
:1014500088421FDC40F27041C4F20201884225D06C
:1014600040F288411EE04021C4F2020188421DD0B2
:10147000582117E040F24041C4F20201884215D0E1
:1014800040F258410EE0A021C4F2020188420DD082
:10149000B82107E040F2B841C4F20201884205D009
:1014A00040F2A041C4F2020188425ED1D4E9161292
:1014B00002F01F023F2303FA02F28A6040455EDC1D
:1014C0009F21C4F20201884214DC5721C4F20201B8
:1014D000884226DC1021C4F20201884200F0A2807A
:1014E0002821C4F20201884200F09C804021C4F20D
:1014F000020195E040F22741C4F2020188421EDC5D
:10150000A021C4F20201884200F08C80B821C4F20C
:101510000201884200F0868040F21041C4F20201CC
:101520007EE05821C4F2020188427BD07021C4F2CF
:101530000201884276D08821C4F2020170E040F2B4
:101540002841C4F2020188426CD040F24041C4F20A
:101550000201884266D040F25841C4F202015FE0C5
:1015600021686FF00E020E4619E6D4E9161202F059
:101570001F02012303FA02F24A604045A0DD45F252
:101580002F41C5F60201884216DC40F2B741C4F291
:101590000201884225DC40F27041C4F20201884217
:1015A00040D040F28841C4F2020188423AD040F271
:1015B000A041C4F2020133E045F26B41C5F60201DD
:1015C00088421DDC45F23041C5F60201884229D02F
:1015D00045F24441C5F60201884223D045F2584104
:1015E0001CE040F2B841C4F2020188421AD045F230
:1015F0000841C5F60201884214D045F21C410DE0B5
:1016000045F26C41C5F6020188420BD045F2944187
:10161000C5F60201884205D045F28041C5F60201B7
:1016200088420BD1616EA26EE06E4A6030B10168F3
:1016300021F480710160D4E91C014160012084F82B
:1016400035000020002184F83410BDE8F08100004E
:1016500080B5D8B190F83510022919D140F20F4267
:101660000168C4F20202914216DC6F23C4F2020345
:10167000994226DC3F23C4F2020399423CDC10234A
:10168000C4F2020399425AD0282354E0012080BDBD
:1016900080214165012080BD40F26F43C4F2020306
:1016A00099421ADC40F23F43C4F2020399422ADC19
:1016B00040F21043C4F20203994240D040F2284362
:1016C00039E09F23C4F20203994225DC7023C4F25F
:1016D0000203994233D088232DE040F29F43C4F2A5
:1016E000020399421FDC40F27043C4F202039942A4
:1016F00025D040F288431EE04023C4F20203994201
:101700001DD0582317E040F24043C4F2020399422F
:1017100015D040F258430EE0A023C4F202039942D0
:101720000DD0B82307E040F2B843C4F20203994257
:1017300005D040F2A043C4F20203994270D1914215
:101740004FF0040280F8352010DC6F22C4F2020250
:10175000914220DC3F22C4F20202914236DC102288
:10176000C4F20202914254D028224EE040F26F426D
:10177000C4F2020291421ADC40F23F42C4F2020279
:1017800091422ADC40F21042C4F20202914240D05F
:1017900040F2284239E09F22C4F20202914225DC45
:1017A0007022C4F20202914233D088222DE040F22E
:1017B0009F42C4F2020291421FDC40F27042C4F226
:1017C0000202914225D040F288421EE04022C4F23B
:1017D000020291421DD0582217E040F24042C4F26A
:1017E0000202914215D040F258420EE0A022C4F20B
:1017F000020291420DD0B82207E040F2B842C4F292
:101800000202914205D040F2A042C4F2020291428B
:1018100024D10068016821F001010160002080BD31
:101820000268136823F00E03136045F25742C5F6B1
:10183000020291420A6822F001020A6014DC45F2B9
:101840002F42C5F6020291421DDC45F20842C5F660
:10185000020291422CD045F21C4225E0086820F09B
:1018600001000860002080BD45F27F42C5F60202FB
:10187000914211DC45F25842C5F60202914217D05E
:1018800045F26C4210E045F23042C5F60202914248
:101890000ED045F2444207E045F29442C5F60202FA
:1018A000914205D045F28042C5F6020291421AD11A
:1018B000D0E9181CD0E916E30A6822F480720A60A5
:1018C00003F01F01012202FA01F1CEF80410816E2B
:1018D000CCF80410C16E31B10A6822F480720A603B
:1018E000D0E91C124A60012180F83510026D0021F8
:1018F00080F834100AB190470021084680BD0000EE
:101900002DE9F04381B00021009140F20801044626
:10191000C2F2004140F26F49A56DC4F202090868A5
:1019200048F2B511C1F64E312668A0FB01084E45BC
:101930002F682A6815DC9F20C4F2020086422BDC47
:101940005720C4F2020086424FDC1020C4F202008D
:10195000864278D02820C4F20200864273D040200C
:101960006CE045F22F40C5F60200864227DC40F2CB
:10197000B740C4F20200864243DC40F27040C4F239
:10198000020086425FD040F28840C4F202008642E4
:1019900059D040F2A04051E040F22740C4F202008A
:1019A00086423DDCA020C4F2020086424BD0B82023
:1019B000C4F20200864246D040F210403EE045F2BA
:1019C0006B40C5F60200864274DC45F23040C5F635
:1019D0000200864200F0818045F24440C5F60200D4
:1019E00086427AD045F2584072E05820C4F2020094
:1019F000864228D07020C4F20200864223D088207C
:101A00001CE040F2B840C4F2020086421BD045F20E
:101A10000840C5F6020086425FD045F21C4057E000
:101A200040F22840C4F2020086420CD040F240400E
:101A3000C4F20200864206D040F25840C4F20200CE
:101A4000864240F0ED84E06D00F01F01082000FAAE
:101A500001F23A4200F0148140F20F40C4F2020059
:101A6000864213DC6F20C4F20200864200F38E80AF
:101A70003F20C4F20200864200F3CF801020C4F25F
:101A80000200864200F0ED802820E5E04E4500F39C
:101A9000898040F23F40C4F20200864200F3C480D5
:101AA00040F21040C4F20200864200F0DA8040F2B8
:101AB0002840D1E045F26C40C5F6020086420CD0C9
:101AC00045F28040C5F60200864206D045F29440B9
:101AD000C5F60200864240F0A3842068E16D01F063
:101AE0001F010368580727D50420884010EA020721
:101AF00022D01904686000F18780980600F18C8478
:101B000040F20F40C4F20200864200F3AB836F2024
:101B1000C4F20200864200F3E6833F20C4F20200D2
:101B2000864200F350841020C4F20200864200F086
:101B30006D84282000F066BC980742D502208840BA
:101B400010EA02073DD01904686000F10E83980680
:101B500000F1988440F20F40C4F20200864200F384
:101B6000AF836F20C4F20200864200F311843F204D
:101B7000C4F20200864200F356841020C4F2020030
:101B8000864200F07384282000F06CBC9F20C4F2D1
:101B90000200864251DC7020C4F20200864260D00E
:101BA000882059E040F29F40C4F2020086424BDC9C
:101BB00040F27040C4F20200864252D040F28840A7
:101BC0004AE0180740F12C8408208840104000F0BB
:101BD000278440F20F40C4F20200864200F32C83B7
:101BE0006F20C4F20200864200F34F833F20C4F20C
:101BF0000200864200F393831020C4F20200864262
:101C000000F0B1832820A9E3D80300F1B482A16CCD
:101C1000002940F00C8300F003BC4020C4F2020015
:101C200086421ED0582017E040F24040C4F2020025
:101C3000864216D040F258400EE0A020C4F20200C6
:101C400086420ED0B82007E040F2B840C4F202004D
:101C5000864206D040F2A040C4F20200864240F024
:101C60008E82206804230068184209D02068036827
:101C700023F004030360AA60606D40F0010060651A
:101C8000012000FA01F23A4270D040F20F40C4F253
:101C90000200864210DC6F20C4F2020086421CDC87
:101CA0003F20C4F20200864232DC1020C4F202005F
:101CB000864251D028204AE04E451ADC40F23F408F
:101CC000C4F2020086422ADC40F21040C4F2020054
:101CD000864241D040F2284039E09F20C4F2020001
:101CE000864225DC7020C4F20200864234D088206F
:101CF0002DE040F29F40C4F2020086421FDC40F219
:101D00007040C4F20200864226D040F288401EE0B5
:101D10004020C4F2020086421ED0582017E040F254
:101D20004040C4F20200864216D040F258400EE015
:101D3000A020C4F2020086420ED0B82007E040F294
:101D4000B840C4F20200864206D040F2A040C4F27D
:101D50000200864240F016822068406900F0800050
:101D600020B1AA60606D40F002006065042000FAB6
:101D700001F23A4270D040F20F40C4F202008642B3
:101D800010DC6F20C4F2020086421CDC3F20C4F24B
:101D90000200864232DC1020C4F20200864251D09A
:101DA00028204AE04E451ADC40F23F40C4F20200CF
:101DB00086422ADC40F21040C4F20200864241D042
:101DC00040F2284039E09F20C4F20200864225DC20
:101DD0007020C4F20200864234D088202DE040F208
:101DE0009F40C4F2020086421FDC40F27040C4F201
:101DF0000200864226D040F288401EE04020C4F215
:101E0000020086421ED0582017E040F24040C4F243
:101E10000200864216D040F258400EE0A020C4F2E4
:101E2000020086420ED0B82007E040F2B840C4F26B
:101E30000200864206D040F2A040C4F20200864270
:101E400040F0A6812068006800F0020020B1AA607E
:101E5000606D40F004006065102000FA01F1394225
:101E60007ED040F20F40C4F20200864210DC6F20A8
:101E7000C4F2020086421CDC3F20C4F2020086420B
:101E800032DC1020C4F20200864251D028204AE001
:101E90004E451ADC40F23F40C4F2020086422ADC82
:101EA00040F21040C4F20200864241D040F2284085
:101EB00039E09F20C4F20200864225DC7020C4F283
:101EC0000200864234D088202DE040F29F40C4F2C8
:101ED000020086421FDC40F27040C4F202008642DB
:101EE00026D040F288401EE04020C4F20200864224
:101EF0001ED0582017E040F24040C4F20200864253
:101F000016D040F258400EE0A020C4F202008642F3
:101F10000ED0B82007E040F2B840C4F2020086427A
:101F200006D040F2A040C4F20200864240F0368162
:101F3000266808223068104212D0A9602068016823
:101F40004903016806D4C90506D4016821F00801D7
:101F5000016001E008034FD4216C09B12046884795
:101F6000E06D202100F01F008140394200F0AE807A
:101F700040F20F432268C4F202039A4210DC6F233E
:101F8000C4F202039A421CDC3F23C4F202039A42C9
:101F900036DC1023C4F202039A4255D028234EE0C7
:101FA0004A451ADC40F23F43C4F202039A422EDC57
:101FB00040F21043C4F202039A4245D040F2284353
:101FC0003DE09F23C4F202039A4229DC7023C4F24D
:101FD00002039A4238D0882331E040F29F43C4F292
:101FE00002039A4223DC40F27043C4F202039A4295
:101FF0002AD040F2884322E0A16C0029AED1AFE79D
:102000004023C4F202039A421ED0582317E040F244
:102010004043C4F202039A4216D040F258430EE005
:10202000A023C4F202039A420ED0B82307E040F284
:10203000B843C4F202039A4206D040F2A043C4F26D
:1020400002039A4240F0AC802268102312681A42C0
:102050003CD0A96094F835202168042A0A681DD173
:1020600022F016020A604A6922F080024A61226C5C
:102070000AB9A26C1AB10A6822F008020A603F216C
:1020800001FA00F0A860012084F83500216D0020DD
:10209000002984F8340040F0CA80C1E15003086888
:1020A0000CD4C0050ED4086820F010000860012090
:1020B00084F83500002084F8340003E0000301D4E4
:1020C000616C00E0E16B09B120468847606D002833
:1020D00000F0A681606DC00700F0A580042084F8A0
:1020E000350040F20F412068C4F20201884210DC42
:1020F0006F21C4F2020188421CDC3F21C4F20201BC
:1021000088424FDC1021C4F2020188426FD028219E
:1021100067E048451ADC40F23F41C4F202018842C0
:1021200047DC40F21041C4F2020188425FD040F225
:10213000284156E09F21C4F20201884242DC70210E
:10214000C4F20201884252D088214AE040F29F4105
:10215000C4F2020188423CDC40F27041C4F2020148
:10216000884244D040F288413BE0D80376D4616C89
:1021700000295CD154E1216C002958D150E1082399
:10218000304670E53068002000287FF4EAADEDE5C8
:102190003068002000287FF45AAE5DE60422C9E6CC
:1021A000022353E74021C4F2020188421FD0582184
:1021B00017E040F24041C4F20201884217D040F2D9
:1021C00058410EE0A021C4F2020188420FD0B8218C
:1021D00007E040F2B841C4F20201884207D040F261
:1021E000A041C4F20201884208BF206800E02068D4
:1021F0004FEA9821026822F0010202600098013043
:102200000090884203D820680068C007F6D1206893
:102210000068C0074FF0030008BF012084F83500B4
:10222000002084F83400E16C002900F0F980204699
:10223000884701B0BDE8F0834E4532DC40F23F40B4
:10224000C4F20200864271DC40F21040C4F2020087
:10225000864200F0888040F228407FE0E16B002950
:10226000E5D1DDE04E454BDC40F23F40C4F20200D8
:10227000864200F3AF8040F21040C4F20200864272
:1022800000F0C48040F22840BCE09F20C4F202006D
:10229000864254DC7020C4F20200864263D088205B
:1022A0005CE040F29F40C4F2020086424EDC40F205
:1022B0007040C4F20200864255D040F288404DE0A2
:1022C0004E4571DC40F23F40C4F20200864200F30A
:1022D000B18040F21040C4F20200864200F0C68095
:1022E00040F22840BEE09F20C4F2020086427ADC21
:1022F0007020C4F20200864200F08880882081E0CD
:1023000040F29F40C4F20200864273DC40F270400B
:10231000C4F20200864279D040F2884072E0402048
:10232000C4F2020086421ED0582017E040F240401E
:10233000C4F20200864216D040F258400EE0A020BF
:10234000C4F2020086420ED0B82007E040F2B84046
:10235000C4F20200864206D040F2A040C4F202005D
:10236000864240F0948026686FF01C02306810406E
:102370003060012000FA01F16960606584F8350081
:102380000020E16C84F8340000297FF450AF47E06E
:102390009F20C4F20200864255DC7020C4F2020085
:1023A000864263D088205DE040F29F40C4F2020084
:1023B00086424FDC40F27040C4F20200864255D0A3
:1023C00040F288404EE04020C4F2020086421DD018
:1023D000582017E040F24040C4F20200864215D077
:1023E00040F258400EE0A020C4F2020086420DD018
:1023F000B82007E040F2B840C4F20200864205D09F
:1024000040F2A040C4F20200864243D126686FF039
:102410000801306808403060216C00297FF407AF64
:1024200001B0BDE8F0834020C4F2020086421DD016
:10243000582017E040F24040C4F20200864215D016
:1024400040F258400EE0A020C4F2020086420DD0B7
:10245000B82007E040F2B840C4F20200864205D03E
:1024600040F2A040C4F20200864216D126686FF006
:102470001401306808403060012084F835000020E5
:1024800084F83400E16B00297FF4D1AEC8E76FF027
:102490000E026BE76FF00401BBE76FF00A01E8E79B
:1024A0002DE9F04381B0044600F0CAFD002C00F095
:1024B000738140F26F4805462068C4F20208404527
:1024C00015DC9F21C4F2020188422BDC5721C4F2A3
:1024D0000201884251DC1021C4F2020188427AD004
:1024E0002821C4F20201884275D040216EE045F2F5
:1024F0002F41C5F60201884227DC40F2B741C4F201
:102500000201884245DC40F27041C4F20201884277
:1025100061D040F28841C4F2020188425BD040F2AF
:10252000A04153E040F22741C4F2020188423FDC5F
:10253000A021C4F2020188424DD0B821C4F20201A8
:10254000884248D040F2104140E045F26B41C5F668
:102550000201884200F3908045F23041C5F6020145
:10256000884200F09C8045F24441C5F60201884251
:1025700000F0958045F258418CE05821C4F20201E8
:10258000884228D07021C4F20201884223D08821D9
:102590001CE040F2B841C4F2020188421BD045F26F
:1025A0000841C5F60201884279D045F21C4171E02C
:1025B00040F22841C4F2020188420CD040F240416E
:1025C000C4F20201884206D040F25841C4F202012E
:1025D000884240F0118240F20F420221C4F202020E
:1025E00084F8351090424FF0000184F8341012DC6A
:1025F0006F21C4F20201884220DC3F21C4F20201B3
:10260000884200F391801021C4F20201884200F058
:10261000B0802821A7E040451EDC40F23F41C4F2D3
:102620000201884200F3878040F21041C4F20201A7
:10263000884200F09E8040F2284194E09F21C4F23D
:102640000201884200F380807021C4F202018842B6
:1026500000F08F80882186E040F29F41C4F20201A1
:10266000884278DC40F27041C4F20201884200F0F6
:10267000808040F2884176E045F26C41C5F6020167
:1026800088420CD045F28041C5F60201884206D04E
:1026900045F29441C5F60201884240F0AD8104F153
:1026A000080E022084F8350000209EE80640A1F1C3
:1026B000800384F83400B3FA83F320685B0940296F
:1026C000D4E90579D4E9076C05684FEA83336FF3E1
:1026D000101508BF102345EAD2014AF6F832194313
:1026E000CAF2FD7241EADE014CF6CD4341EAD70160
:1026F000024441EAD901CCF6CC4341EAD601A2FB1F
:10270000032341EA1C1101606FF0030000EA93000B
:10271000E0652046FEF7B8F8E16D012201F01F01E7
:1027200002FA01F141609BE04021C4F202018842BB
:102730001FD0582117E040F24041C4F20201884204
:1027400017D040F258410EE0A021C4F202018842A5
:102750000FD0B82107E040F2B841C4F2020188422C
:1027600007D040F2A041C4F20201884208BF2068AD
:1027700000E02068016821F00101016027683868E5
:10278000C0070DD000F05CFC401B0628F6D32020CB
:102790006065032084F83500012001B0BDE8F083B6
:1027A00048F23F0104F108053868CFF6106108408F
:1027B0002ECD0843A1691043E2691843236A0543FB
:1027C000606A2943042841EA020141EA030103D176
:1027D000D4E90B231143194341F20002C5F600422C
:1027E0001268B2F1005F17D36268A2F12903202BAF
:1027F00006D23F25CCF2C03525FA03F3DB0706D11C
:10280000A2F14F030022042B38BF012200E0012275
:10281000002A18BF41F4801139600428796921F039
:10282000070141EA000510D1D4E90A1045EA010583
:1028300058B12046FEF788F938B140206065012084
:1028400084F8350001B0BDE8F08320467D61FEF7D5
:102850001BF8E16D3F2201F01F0102FA01F18160D6
:102860002068404519DC9F21C4F20201884231DC16
:102870005721C4F20201884256DC1021C4F2020141
:10288000884200F091802821C4F20201884200F0C1
:102890008B804021C4F2020184E045F22F41C5F64D
:1028A000020188422BDC40F2B741C4F202018842A7
:1028B00048DC40F27041C4F20201884274D040F218
:1028C0008841C4F2020188426ED040F2A041C4F2B5
:1028D000020167E040F22741C4F20201884240DC75
:1028E000A021C4F2020188425ED0B821C4F20201E4
:1028F000884259D040F21041C4F2020152E045F240
:102900006B41C5F6020188423CDC45F23041C5F618
:102910000201884248D045F24441C5F6020188428E
:1029200042D045F258413BE05821C4F202018842AE
:102930003AD07021C4F20201884235D08821C4F215
:1029400002012FE040F2B841C4F2020188422BD0CC
:1029500045F20841C5F60201884225D045F21C41E6
:102960001EE040F22841C4F2020188421CD040F22D
:102970004041C4F20201884216D040F25841C4F2EC
:1029800002010FE045F26C41C5F6020188420BD00E
:1029900045F29441C5F60201884205D045F28041D6
:1029A000C5F6020188421FD12046FDF7FDFFA06851
:1029B000802801D10020606004F160036068C7B224
:1029C00001380ECB07280F60536009D82046FEF768
:1029D00063F804F16C02002307CA03604A6003E055
:1029E00000206067C4E91B0000206065012184F8B5
:1029F000351001B0BDE8F0834020C9E600000000BA
:102A0000F0B581B0A8B3044690F83400012802D193
:102A1000022001B0F0BD012084F8340094F83500A4
:102A2000012820D1022084F835000020606540F2A2
:102A30000F462068C4F2020640F26F47B042C4F26B
:102A4000020719DC6F25C4F20205A84225DC3F25E8
:102A5000C4F20205A8423BDC1025C4F20205A842DC
:102A60005BD0282553E04FF400606065002084F8B7
:102A70003400012001B0F0BDB8421ADC40F23F45FD
:102A8000C4F20205A8422ADC40F21045C4F2020555
:102A9000A84242D040F2284539E09F25C4F2020501
:102AA000A84225DC7025C4F20205A84235D088254D
:102AB0002DE040F29F45C4F20205A8421FDC40F21F
:102AC0007045C4F20205A84227D040F288451EE0B6
:102AD0004025C4F20205A8421FD0582517E040F255
:102AE0004045C4F20205A84217D040F258450EE016
:102AF000A025C4F20205A8420FD0B82507E040F295
:102B0000B845C4F20205A84207D040F2A045C4F27D
:102B10000205A84208BF206800E02068056825F08B
:102B2000010505602046FEF737F82068B04210DC4A
:102B30006F21C4F2020188421CDC3F21C4F2020171
:102B4000884232DC1021C4F20201884251D028218F
:102B50004AE0B8421ADC40F23F41C4F20201884226
:102B60002ADC40F21041C4F20201884241D040F216
:102B7000284139E09F21C4F20201884225DC7021FE
:102B8000C4F20201884234D088212DE040F29F41F6
:102B9000C4F2020188421FDC40F27041C4F202011B
:102BA000884226D040F288411EE04021C4F2020152
:102BB00088421ED0582117E040F24041C4F2020181
:102BC000884216D040F258410EE0A021C4F2020122
:102BD00088420ED0B82107E040F2B841C4F20201A9
:102BE000884206D040F2A041C4F20201884240F07F
:102BF000298121680B25226C0B6865F344030B6067
:102C00001AB10A6842F008020A60B84219DC9F2132
:102C1000C4F20201884231DC5721C4F20201884229
:102C200056DC1021C4F20201884200F09180282174
:102C3000C4F20201884200F08B804021C4F20201FC
:102C400084E045F22F41C5F6020188422BDC40F2B8
:102C5000B741C4F20201884248DC40F27041C4F23C
:102C60000201884274D040F28841C4F202018842D5
:102C70006ED040F2A041C4F2020167E040F2274169
:102C8000C4F20201884240DCA021C4F20201884261
:102C90005ED0B821C4F20201884259D040F21041FE
:102CA000C4F2020152E045F26B41C5F602018842CE
:102CB0003CDC45F23041C5F60201884248D045F27D
:102CC0004441C5F60201884242D045F258413BE0FA
:102CD0005821C4F2020188423AD07021C4F20201A4
:102CE000884235D08821C4F202012FE040F2B84179
:102CF000C4F2020188422BD045F20841C5F6020118
:102D0000884225D045F21C411EE040F22841C4F221
:102D1000020188421CD040F24041C4F202018842C4
:102D200016D040F25841C4F202010FE045F26C4166
:102D3000C5F6020188420BD045F29441C5F6020166
:102D4000884205D045F28041C5F60201884272D121
:102D5000216E0A68D20303D50A6842F480720A60C1
:102D6000E16E19B10A6842F480720A60B04210DC68
:102D70006F21C4F2020188421CDC3F21C4F202012F
:102D8000884232DC1021C4F20201884252D028214C
:102D90004AE0B8421ADC40F23F41C4F202018842E4
:102DA0002ADC40F21041C4F20201884242D040F2D3
:102DB000284139E09F21C4F20201884225DC7021BC
:102DC000C4F20201884235D088212DE040F29F41B3
:102DD000C4F2020188421FDC40F27041C4F20201D9
:102DE000884227D040F288411EE04021C4F202010F
:102DF00088421FD0582117E040F24041C4F202013E
:102E0000884217D040F258410EE0A021C4F20201DE
:102E100088420FD0B82107E040F2B841C4F2020165
:102E2000884207D040F2A041C4F20201884208BFA4
:102E3000206800E02068016841F001010160002085
:102E400001B0F0BD21680525226C0B68002A65F3EE
:102E500043030B603FF4D9AE0A6842F00402D3E6A4
:102E6000704700000000000080B58821C5F6000111
:102E70000A68024208BF80BD0860FFF7F1FF80BD0D
:102E80002DE9F04F83B00C68002C00F0C68000F1F3
:102E9000264242F2004702F1FF72C5F602074FEAEE
:102EA000B22201920A22B84208BF09220025002757
:102EB0004FF0010A009209E00C68043734FA0AF274
:102EC0000AF1010A05F1020500F0A780AAF1010943
:102ED000012202FA09FE14EA0E08EDD0D1F804B07E
:102EE0000BF00304A4F1010CBCF1010F11D8032273
:102EF0008668AA40CB6826EA0202AB401A43826089
:102F0000CBF30013426822EA0E0203FA09F31A43D4
:102F10004260032C1ED00323C268AB40022C22EA7D
:102F200003028B6803FA05F342EA0302C26011D17F
:102F30006FF0030207F01C0602EA59020F23024455
:102F400003FA06F4D2F820C00B692CEA0404B3405B
:102F50002343136203230268AB404E689A4306F092
:102F60000303AB4016F4403F42EA03020260A3D0E1
:102F700044F2F44340F2084EC5F60203C5F6000ED3
:102F80001A6842F002021A601A6807F00C0302F095
:102F900002020292029A29F00302019C009E092C6F
:102FA00038BF26460F2452F80EC09C402CEA040479
:102FB00006FA03F34FF0B04C234342F80E30DCF82E
:102FC00000204B6842EA0806DC0258BF22EA0806E5
:102FD0009C02CCF8006040F2040CC5F6000CDCF852
:102FE000002042EA080658BF22EA08069C03CCF8F3
:102FF0000060DCF8802042EA080658BF22EA080692
:10300000DB03CCF88060DCF87C2042EA080658BF7D
:1030100022EA0806CCF87C604EE703B0BDE8F08FEA
:10302000002A08BF09048161704700000000000009
:1030300041F20000C5F600400068000C7047000037
:1030400040F29470C2F20040006870470000000037
:1030500040F2100040F29471C2F20040C2F200410E
:1030600000780A6810440860704700000000000003
:1030700080B5032000F084F801F012F844F2184102
:1030800048F61223C5F60201C0F600030A68096873
:1030900001F00F01C2F30322595C9A5C01F01F0199
:1030A00002F01F02D04040F20C02C2F2004220FAAD
:1030B00001F1116040F20801C2F2004108600020F5
:1030C00000F00AF800281CBF012080BD00F030F895
:1030D000002080BD00000000B0B540F21001C2F237
:1030E0000041097801B3044640F20800C2F20040F2
:1030F0004FF47A72B2FBF1F10068B0FBF1F001F02D
:103100007BFC0F2C4FF001050CD858B94FF0FF3065
:1031100000222146002500F023F840F21400C2F2FC
:10312000004004602846B0BD0120B0BD0000000092
:1031300080B582B044F2F440C5F60200016841F067
:1031400002010160006800F0020001900198052072
:1031500000F016F802B080BD80B504F059FF80BDC4
:1031600070B514460D46064604F062FF2946224615
:1031700003F0F2FB0146304604F062FF70BD000030
:1031800080B504F071FF80BDB0B544F60C05C5F6FE
:10319000020529684907296805D401F00701081AC2
:1031A00018BF0120B0BD21F0070108432860FFF7D8
:1031B00047FF044655F8080C800407D4FFF740FF8A
:1031C000001BB0F57A7FF5D90120B0BD0020B0BD5D
:1031D00080B500F015FF44F2204148F61222C5F6F2
:1031E0000201C0F600020968C1F30211515C01F04E
:1031F0001F01C84080BD000080B544F2384EC5F6BE
:10320000020E5EF8103C5EF8101CC1F3053C5EF83F
:103210000C1CBCF1000FDEF8042014D0C1F3001127
:10322000C2F3CC02514300EE101A03F0030102294D
:10323000B8EE400A0CD071B95EF8381C89060DD47E
:103240009FED341A18E000218160C0E9001180BDB3
:103250009FED2F1A10E09FED2D1A0DE05EF8381C3F
:1032600049F20002C0F2D032C1F3C10122FA01F1E9
:1032700001EE101AB8EE411ADEF800109FED263A62
:103280006FF35F2102EE101ADEF80010C1F3462141
:10329000B8EE422A00EE032A00EE10CAB7EE003A5A
:1032A000B8EE400A81EE000A32EE031A02EE101A5E
:1032B000B8EE422A20EE010A32EE031A80EE011A1D
:1032C000BCEEC11A80ED001ADEF80010C1F3064111
:1032D00001EE101AB8EE411A31EE031A80EE011A0F
:1032E000BCEEC11A80ED011ADEF80010C1F30661D0
:1032F00001EE101AB8EE411A31EE031A80EE010AFF
:10330000BCEEC00A10EE101A816080BD0024744A21
:1033100020BCBE4B0024744C0000003900000000AB
:1033200080B544F2404EC5F6020E5EF8183C5EF8D9
:10333000181CC1F3055C5EF8141CBCF1000FDEF82C
:10334000042014D0C1F30021C2F3CC02514300EE9B
:10335000101A03F003010229B8EE400A0CD071B92B
:103360005EF8401C89060DD49FED341A18E0002148
:103370008160C0E9001180BD9FED2F1A10E09FED24
:103380002D1A0DE05EF8401C49F20002C0F2D03266
:10339000C1F3C10122FA01F101EE101AB8EE411A8F
:1033A000DEF800109FED263A6FF35F2102EE101A4F
:1033B000DEF80010C1F34621B8EE422A00EE032ADF
:1033C00000EE10CAB7EE003AB8EE400A81EE000AED
:1033D00032EE031A02EE101AB8EE422A20EE010A6B
:1033E00032EE031A80EE011ABCEEC11A80ED001A0B
:1033F000DEF80010C1F3064101EE101AB8EE411AD2
:1034000031EE031A80EE011ABCEEC11A80ED011AEA
:10341000DEF80010C1F3066101EE101AB8EE411A91
:1034200031EE031A80EE010ABCEEC00A10EE101A4B
:10343000816080BD0024744A20BCBE4B0024744CC3
:1034400000000039000000002DE9F04381B004467F
:10345000C07844F22C490007C5F6020901D40026C1
:103460002DE0606E4FEA305003280DD80026DFE8CB
:1034700000F0020E1613D9F80000002640F40030C8
:10348000C9F800004EB912E0012636B90FE0201D40
:10349000022103F09DFA06464EB1B04611E004F158
:1034A0002400022103F024FB0646002EF5D1D9F8B2
:1034B0002400616E20F440100843C9F824004FF046
:1034C00000086078C0072FD0606D042807D8DFE8B7
:1034D00000F00A131B030300F6B1B04624E00126F6
:1034E000002EFAD118E0D9F8000040F40030C9F8F5
:1034F0000000002EF1D10FE0201D002103F068FA3A
:103500000646002EE9D107E004F12400002103F073
:10351000EFFA0646002EE0D1D9F82400616D20F0C4
:1035200007000843C9F824006078800731D5A06DF2
:103530004FEAB010042807D8DFE800F00A131B0395
:103540000300F6B1B04624E00126002EFAD118E0BF
:10355000D9F8000040F40030C9F80000002EF1D185
:103560000FE0201D002103F033FA0646002EE9D1BA
:1035700007E004F12400002103F0BAFA0646002E09
:10358000E0D1D9F82400A16D20F4E0700843C9F817
:1035900024006078400733D5D4F8A4004FEA705077
:1035A000042807D8DFE800F00A131B030300F6B174
:1035B000B04625E00126002EFAD118E0D9F8000027
:1035C00040F40030C9F80000002EF1D10FE0201DBA
:1035D000002103F0FDF90646002EE9D107E004F1D1
:1035E0002400002103F084FA0646002EE0D1D9F829
:1035F0002C00D4F8A41020F460000843C9F82C0073
:103600006078000733D5D4F8A8004FEA306004286A
:1036100007D8DFE800F00A131B030300F6B1B04639
:1036200025E00126002EFAD118E0D9F8000040F478
:103630000030C9F80000002EF1D10FE0201D00215C
:1036400003F0C6F90646002EE9D107E004F1240094
:10365000002103F04DFA0646002EE0D1D9F82C00E7
:10366000D4F8A81020F0E0600843C9F82C00E078F6
:10367000800727D5A06C4FEA3010032806D8DFE872
:1036800000F002091202AEB1B0461BE00126002E86
:10369000FAD10FE0D9F8000040F40030C9F800007A
:1036A000002EF1D106E0201D022103F091F906461B
:1036B000002EE9D1D9F82000A16C20F03000084399
:1036C000C9F820006078C00631D5E06D4FEA30308F
:1036D000042807D8DFE800F00A131B030300F6B143
:1036E000B04624E00126002EFAD118E0D9F80000F7
:1036F00040F40030C9F80000002EF1D10FE0201D89
:10370000002103F065F90646002EE9D107E004F137
:103710002400002103F0ECF90646002EE0D1D9F890
:103720002400E16D20F4E0400843C9F824006078EB
:10373000800625D5206E4FEA3040052807D8DFE8FF
:1037400000F0030A0F03030396B1B04618E0012608
:10375000002EFAD10CE0201D012103F039F904E01C
:1037600004F12400012103F0C3F90646002EECD138
:10377000D9F82400216E20F4E0200843C9F8240081
:103780006078400627D5D4F8AC004FEA30700528A1
:1037900007D8DFE800F0030A0F03030396B1B04631
:1037A00019E00126002EFAD10CE0201D012103F0C2
:1037B0000FF904E004F12400012103F099F9064611
:1037C000002EECD1D9F82C00D4F8AC1020F0E04059
:1037D0000843C9F82C00607800061FD5E06ED0B110
:1037E000B0F1005F12D0B0F1805F24D1D9F80000B1
:1037F00040F40030C9F800007EB9D9F82400E16E29
:1038000020F040500843C9F8240007E0201D0121A2
:1038100003F0DEF80646002EEFD0B046E078C00791
:1038200029D0606C03280AD8DFE800F0020D1602E8
:10383000CEB1B0461FE00126002EEED1DDE7012615
:10384000002EF6D10FE0D9F8000040F40030C9F89E
:103850000000002EEDD106E0201D022103F0B8F893
:103860000646002EE5D1D9F82000616C20F0030057
:103870000843C9F82000A078400643D5D9F8D403FE
:1038800040F48070C9F8D403FFF7DAFB074600BFA5
:10389000D9F8D403C00505D4FFF7D2FBC01B6528B7
:1038A000F6D303266EBBD9F84410D4F8B0004140DB
:1038B00011F4407F11D0D9F84410D9F8442042F4D3
:1038C0008032C9F84420D9F8442021F4407122F410
:1038D0008032C9F84420C9F84410B0F5807F0FD178
:1038E000FFF7AEFB074641F2893500BFD9F8440027
:1038F000800705D4FFF7A4FBC01BA842F6D303261C
:1039000086B1B0462078C00741D0A06F4FEAF000E2
:10391000052823D8DFE800F003262B03030376B342
:10392000B04634E04FF6CF73D4F8B00059F81C2CF1
:10393000C0F2FF0300F4407122F47C5203EA10133A
:10394000B1F5407F08BF1A436FF31F3049F81C2CB4
:10395000D9F844100843C9F84400D3E70126002EE3
:10396000DED10CE0201D012103F032F804E004F167
:103970002400012103F0BCF80646002ED0D1D9F86E
:103980002800A16F20F038000843C9F828002078EB
:10399000800723D5606F052807D8DFE800F0030A09
:1039A0000F03030396B1B04618E00126002EFAD1AA
:1039B0000CE0201D012103F00BF804E004F12400C9
:1039C000012103F095F80646002EECD1D9F8280025
:1039D000616F20F007000843C9F8280020784007ED
:1039E00025D5D4F89000052807D8DFE800F0030AB1
:1039F0000F03030396B1B04619E00126002EFAD159
:103A00000CE0201D012102F0E3FF04E004F124009A
:103A1000012103F06DF80646002EECD1D9F82C00F8
:103A2000D4F8901020F007000843C9F82C00207843
:103A3000800627D5D4F88C004FEA3070052807D8C7
:103A4000DFE800F0030A0F03030396B1B04619E064
:103A50000126002EFAD10CE0201D002102F0B8FF53
:103A600004E004F12400022103F042F80646002E8F
:103A7000ECD1D9F82800D4F88C1020F0E0400843AD
:103A8000C9F828002078400627D5D4F898004FEAD6
:103A9000B020052807D8DFE800F0030A0F0303036E
:103AA00096B1B04619E00126002EFAD10CE0201D97
:103AB000002102F08DFF04E004F12400022103F054
:103AC00017F80646002EECD1D9F82C00D4F898103F
:103AD00020F4E0500843C9F82C002078000627D5D0
:103AE000D4F89C004FEA7030052807D8DFE800F0D2
:103AF000030A0F03030396B1B04619E00126002E16
:103B0000FAD10CE0201D002102F062FF04E004F174
:103B10002400022102F0ECFF0646002EECD1D9F879
:103B20002C00D4F89C1020F460400843C9F82C0005
:103B30002078000716D5D4F88000B0F5805F08D152
:103B400004F12400022102F0D3FF002818BF4FF037
:103B50000108D9F82800D4F8801020F44050084318
:103B6000C9F828002078C00616D5D4F89400B0F51E
:103B7000807F08D104F12400022102F0B9FF00285F
:103B800018BF4FF00108D9F82C00D4F8941020F495
:103B900040700843C9F82C00A078000721D5D4F85C
:103BA000A000B0F5003F19D0B0F5803F10D0C0BBE9
:103BB000201D002102F00CFF06468EB9D9F82C001A
:103BC000D4F8A01020F440300843C9F82C0008E0D5
:103BD00004F12400022102F08BFF0646002EEDD0F6
:103BE000B046A078400729D5D4F88400B0F5401F2E
:103BF00021D0B0F5001F18D0B0F5801F40F0C18073
:103C0000D9F8000040F40030C9F80000AEB9D9F886
:103C10002800D4F8841020F440100843C9F8280084
:103C20000CE00126002EDBD1C8E704F124000121BD
:103C300002F05EFF0646002EE9D0B046A078C0072D
:103C40001FD0E06CB0F5803F10D0B0B9D9F80000BB
:103C500040F40030C9F8000096B9D9F82000E16CB2
:103C600020F480300843C9F820000AE0201D02211A
:103C700002F0AEFE06461EB9EFE70126002EECD09C
:103C8000B046E078800608D504F12400022102F055
:103C90002FFF002818BF4FF00108206881031ED4B1
:103CA000C10234D4C1003CD4810245D441004DD47A
:103CB000B0F1FF3F5ADD000208D5D9F82800D4F84A
:103CC000881020F440000843C9F82800B8F1000F1C
:103CD00018BF4FF00108404601B0BDE8F083E16F26
:103CE0006FF0010202EB3122022A0AD34FEA31229D
:103CF0003AB1012A4AD1D9F8002042F40032C9F879
:103D00000020002E45D04FF00108C102CAD5D9F8D5
:103D10002410226F21F000411143C9F82410C10082
:103D2000C2D559F81C1CD4F8B42021F480411143A9
:103D300049F81C1C8102B9D5D9F82410A26E21F0D3
:103D400080711143C9F824104100B1D559F81C1CE9
:103D500021F4004149F81C1CD4F8B81059F81C2C67
:103D6000114349F81C1CB0F1FF3FA4DCD9F8201026
:103D7000226D21F040511143C9F820100002A5D551
:103D80009BE70126002E7FF458AF40E70126002E66
:103D9000B9D1D9F8282022F440721143C9F828106B
:103DA000C1027FF57FAFB2E72DE9F04381B0002873
:103DB00000F0F48042F200080446C5F2002889466B
:103DC000D8F8000000F00F0088420ED2D8F80000AA
:103DD00020F00F0040EA0900C8F80000D8F8000001
:103DE00000F00F00484540F0D980206844F21847A1
:103DF0004107C5F602070AD521693A6802F0700248
:103E0000914204D93A6822F07002114339600107E7
:103E10000AD561697A6802F07002914204D97A6821
:103E200022F0700211437960C1060AD5A1697A684F
:103E300002F4E062914204D97A6822F4E06211430C
:103E4000796081060AD5E169BA6802F07002914290
:103E500004D9BA6822F070021143B96081070AD50B
:103E6000E1683A6802F00F02914204D93A6822F000
:103E70000F0211433960C0077ED1206881070AD53F
:103E8000E1683A6802F00F02914204D23A6822F0E7
:103E90000F0211433960D8F8001001F00F014945B5
:103EA0000DD9D8F8001021F00F0141EA0901C8F836
:103EB0000010D8F8001001F00F0149456ED14107FC
:103EC0000AD521693A6802F07002914204D23A6838
:103ED00022F070021143396001070AD561697A68DE
:103EE00002F07002914204D27A6822F0700211430B
:103EF0007960C1060AD5A1697A6802F4E06291424C
:103F000004D27A6822F4E0621143796080060AD50F
:103F1000E069B96801F07001884204D2B96821F003
:103F200070010843B86000F0BBF8396848F6122207
:103F3000C0F600023B68C1F3032103F00F03515C9C
:103F4000D25C01F01F01C84002F01F0140F20C02D8
:103F500020FA01F1C2F20042116040F2080140F281
:103F60001402C2F20041C2F2004208601068FFF77A
:103F7000B3F801B0BDE8F083386820F47061D4E98B
:103F80000102012841EA020139600BD003282BD03D
:103F900002282ED157F8181C890307D4012001B03C
:103FA000BDE8F08357F8181CC905F7D557F8081C69
:103FB00021F00701084347F8080CFFF741F80646CF
:103FC00041F2883557F8080C616800F03800B0EB12
:103FD000C10F3FF452AFFFF733F8801BA842F1D96D
:103FE000032001B0BDE8F08357F8181C8901D5D52E
:103FF000DCE757F8181C4907D0D5D7E700000000C8
:1040000080B500F04DF844F2184148F61223C5F689
:104010000201C0F600030A68096801F00F01C2F34B
:104020000322595C9A5C02F01F0220FA02F201F0AE
:104030001F0040F20C0122FA00F0C2F200410860B9
:1040400040F20801C2F200410A6080BD0000000099
:1040500080B5FFF7D5FF44F21C4148F61222C5F6A1
:104060000201C0F600020968C1F30211515C01F0BF
:104070001F01C84080BD000080B5FFF7C1FF44F2BA
:104080001C4148F61222C5F60201C0F6000209687A
:10409000C1F30221515C01F01F01C84080BD000046
:1040A00044F20041C5F602010869C0F3C2000328CA
:1040B0000FD002282AD070BB0868800649F20000A1
:1040C000C0F2D03058BF70470968C1F3C101C84081
:1040D00070478A6A886AC0F3051CC86ABCF1000F81
:1040E0004B6B1DD0C3F3CC0300F00100584302F02A
:1040F0000302022A00EE100AB8EE400A12D0A2B95A
:104100000868800614D49FED261A1EE047F640008A
:10411000C0F27D10704740F60010C0F23D007047BD
:10412000002070479FED1D1A0FE09FED1B1A0CE059
:10413000086849F20002C0F2D032C0F3C10022FA8E
:1041400000F001EE100AB8EE411A086B9FED153A27
:104150006FF35F2002EE100A086BC0F34620B8EE42
:10416000422A013000EE032A00EE10CAB7EE003AF0
:10417000B8EE400A81EE000A32EE031A20EE010A80
:1041800001EE100AB8EE411A80EE010ABCEEC00A38
:1041900010EE100A704700BF0024744A20BCBE4BCA
:1041A0000024744C000000392DE9F04381B0F8B1CF
:1041B0008046007844F20049C007C5F602095AD08B
:1041C000D9F8100000F03801D9F82800102905D0DE
:1041D00018290FD100F0030002280BD1D9F80000F4
:1041E000800344D5D8F80400002840D101272FE0EF
:1041F000012735E2D8F804402CB1B4F5A02F0DD03A
:10420000B4F5803F10D0D9F8000020F48030C9F810
:104210000000D9F8000020F4802009E0D9F800005F
:1042200040F48020C9F80000D9F8000040F4803044
:10423000C9F80000FEF704FF0546A4B1D9F8000054
:10424000800314D4FEF7FCFE401B6428F6D9032734
:104250000020002800F004820DE000BFFEF7F0FE11
:10426000401B6428F3D8D9F800008003F6D401205D
:10427000002800F0F58198F80000800740F1848064
:10428000D9F8100010F03801D9F828001CD01829EE
:1042900008BF5FEA807017D0D8F80C00D9F800107A
:1042A000002847D021F019010843C9F80000FEF7A3
:1042B000C7FE0546D9F8000040072AD4FEF7C0FE25
:1042C000401B0228F6D91EE0D9F80000400704D5AB
:1042D000D8F80C00002800F09181D9F80000D8F837
:1042E0000C1020F019000843C9F80000FEF7A8FEE2
:1042F000054600BFD9F8000040070AD4FEF7A0FE2B
:10430000401B0228F6D903270024002C00F0A881C6
:104310003AE0FEF78DFE41F20301884223D8D8F837
:104320001000D9F80410402821F47C3124D141F444
:10433000003023E021F00100C9F80000FEF780FE04
:1043400005460126D9F8000010F0040086EA900422
:1043500017D0FEF775FE401B0328F3D30327002C6C
:1043600000F07E8110E0D9F80400D8F8101020F099
:10437000FE4040EA016001E041EA0030C9F8040073
:104380000124002C00F06C8198F80000C00674D560
:10439000D9F8100000F03801D9F82800082905D014
:1043A00018291CD100F00300012818D1D9F8000009
:1043B000C00503D5D8F81C00802859D1FEF738FE77
:1043C00041F20301884222D8D8F82000D9F804101D
:1043D000202821F0F84142D141F0804041E0D8F856
:1043E0001C000028D9F8000020D040F08000C9F857
:1043F0000000FEF725FE0546D9F80000C005DDD413
:10440000FEF71EFE401B0228F6D9032731E0D9F83B
:104410000C00D8F8201020F07C50012440EA016004
:10442000C9F80C00002C00F01B8126E020F0800071
:10443000C9F80000FEF704FE05460126D9F8000081
:1044400010F4807086EA10240ED0FEF7F9FD401BB0
:104450000328F3D30327002C00F002810DE041EA8A
:104460008060C9F804000124002C00F0F98004E009
:1044700001270024002C00F0F38098F800000007CA
:104480001CD498F80000800631D498F8000040074A
:1044900045D4D8F82440002C00F0E180D9F8100071
:1044A00000F03800182840F08880012CD9F8281036
:1044B000D9F8300040F0A4800127D1E0D8F81400EA
:1044C0000028D9F874003ED040F00100C9F874000B
:1044D000FEF7B6FD054600BFD9F874008007D0D4BA
:1044E000FEF7AEFD401B0228F6D90327B8E0D8F846
:1044F00018000028D9F800004BD040F48050C9F8CB
:104500000000FEF79DFD0546D9F800008004BCD4EC
:10451000FEF796FD401B0228F6D90327A0E0D9F844
:10452000000440F48070C9F80004FEF789FD0546D8
:10453000D9F80004C0051AD4FEF782FD401B642898
:10454000F6D903278CE020F00100C9F87400FEF7CB
:1045500077FD0546032700BFD9F8740080077FF573
:1045600090AFFEF76DFD401B0228F5D978E0D8F832
:1045700008401CB1052C77D0012C7BD0D9F87000F5
:1045800020F00100C9F87000D9F8700020F0040094
:1045900074E020F48050C9F80000FEF751FD054694
:1045A000032700BFD9F8000080047FF56EAFFEF747
:1045B00047FD401B0228F5D952E0D9F8000020F051
:1045C0008070C9F80000FEF73BFD022C05464FF055
:1045D000030709D1D9F80000800171D5FEF730FD3D
:1045E000401B0228F6D93BE0D9F80000800136D5FF
:1045F000FEF726FD401B0228F6D931E0012783E6AD
:1046000001F00302D8F828309A4240F0D380C1F379
:104610000511D8F82C20914240F0CE800146D8F800
:1046200030206FF35F21013A914240F0C780C0F320
:104630004622D8F8341001398A4240F0C180C0F3D4
:104640000642D8F8381001398A4240F0BB80C0F3E6
:104650000660D8F83C100139884240F0B580002748
:10466000F8B201B0BDE8F083D9F8700040F0040062
:10467000C9F87000D9F8700040F00100C9F8700066
:10468000FEF7DEFC002C054641F288344FF00307AC
:1046900011D000BFD9F8700080073FF5FAAEFEF7E1
:1046A000CFFC401BA042F5D9DAE700BFFEF7C8FCFB
:1046B000401BA042D4D8D9F870008007F6D4E8E6B1
:1046C00008F12807D9F8280040F2F33188438ECF4B
:1046D0000843591E40EA02104FF47E426FF35F21F7
:1046E000C9F8280002EB47204FF4FE0280B2D8F848
:1046F0003C300844D8F8381002EB01414FF0FE423C
:1047000001F4FE0102EB0362084402F0FE4108449A
:10471000C9F83000D9F82C004FF6F87120F00100EC
:10472000C9F82C00D9F83400D8F84820884340EA6A
:10473000C200C9F83400D9F82C00D8F8401020F095
:104740000C000843C9F82C00D9F82C00D8F8441004
:1047500020F002000843C9F82C00D9F82C0040F4DE
:104760008030C9F82C00D9F82C0040F40030C9F88A
:104770002C00D9F82C0040F48020C9F82C00D9F87E
:104780002C0040F00100C9F82C00D9F8000040F0DE
:104790008070C9F80000FEF753FC04460327D9F8DF
:1047A000000080013FF55BAFFEF74AFC001B0228CA
:1047B000F5D955E7012753E7012751E701274FE7CF
:1047C00001274DE701274BE7012749E700000000DB
:1047D0002DE9F041002800F0A580044643F60006CC
:1047E000C4F2000643F20007256843F60048B542CC
:1047F000C4F20107C4F200084FF00000A06204D028
:10480000454518BFBD4240F08980204602F000FABD
:10481000B54218BFBD4274D1102800F2838094F8CD
:10482000810028B9002084F88000204600F080F83C
:10483000022084F881002068A1690268B1F1806FCC
:1048400022F001020260826802F4F8120FD163685C
:104850002BB1B3F5800F0AD1A76B27B13BB9A36B7E
:10486000B3F1805F03D1036843F480530360E369CD
:10487000A76A1A43E36B3A431343D4E90365D4E9C7
:10488000012733438360636B666A41EA0301A36BCC
:1048900041EA060141EA0301636941EA0501266A2A
:1048A00041EA0301E36C41EA0601A66C41EA020118
:1048B00041EA0301A36D41EA070141EA060141EA29
:1048C0000301C1604AB98168012363F3CC2181608F
:1048D0008168022363F34A218160016D520221F055
:1048E0000101016505D5C168626D21F000411143E8
:1048F000C1600020C4F88400012184F88110BDE863
:10490000F081454518BF08280CD8B54218BFBD42F4
:104910003FF482AF45453FF47FAF80E7E0680F2862
:104920007FF673AF0120BDE8F081000000000000B9
:104930002DE9F041B6B000210446CDE93411CDE9AE
:104940003211319102A8BC21FBF7FAFC43F20001BD
:104950002068C4F20101884202D036B0BDE8F0817F
:104960004FF4805002904FF48040199002A8FEF757
:104970006BFD08B1FCF794FA44F2E0400024C5F660
:104980000200C5F6020431AD4FF0020801690027AC
:1049900041F4805101610169052601F480510191C2
:1049A0000199016841F001010160016801F0010114
:1049B00001910199016841F00801016000682946F0
:1049C00000F0080001900198202031902046CDF899
:1049D000C880CDE933773596FEF752FA8020294614
:1049E000CDE9310804F540603596CDE93377FEF71F
:1049F00047FA36B0BDE8F08180B502F069F980BDB4
:104A00007047000000000000704700000000000038
:104A1000704700000000000010B590F83C20012A0B
:104A200001D1022010BDCB6848F2FF7ED1E901C25E
:104A300023F47C5322F47052CFF6F07E1A430CEA32
:104A40000E03D1F800C042EA030E2CF477230A6962
:104A500043EA0E0322F47622D0F800E01A434B69B1
:104A60001A434EF4806322F4742C40F20042C4F2E4
:104A700001028C6993428A6A22F470224FF001038A
:104A800042EA0C0280F83C3042EA044310D140F282
:104A9000000C23F07C724B6ACFF6F04CCC690CEA28
:104AA00003531A4324F00073096A1A4342EA0103CC
:104AB0000021CEF8443080F83C10084610BD0000BC
:104AC000B0B590F83C20012A4FF002025CD00123DF
:104AD00080F83C3080F83D2040F2004C0268C4F27F
:104AE000010C42F4806363455368D2F808E002BFCA
:104AF00023F470034C68234341F2FF740D68C4F241
:104B0000000423F07003A24243EA050353600BDC68
:104B100040F2FF73C4F200039A4215DCB2F1804FF9
:104B200027D040F2004317E040F2FF33C4F2010304
:104B30009A4216DC41F60003C4F200039A4218D0F0
:104B40000023C4F2010309E040F60003C4F20003AD
:104B50009A420ED040F60043C4F200039A4208D0B5
:104B60000CE044F20003C4F201039A4201D0624512
:104B700004D12EF08003896819439160002201213D
:104B800080F83D1080F83C201046B0BD00000000C9
:104B900060B310B5044690F83D0028B9002084F8B1
:104BA0003C00204600F024F8022084F83D002068F4
:104BB000211D02F089F9012084F8480084F83E00A4
:104BC00084F83F0084F8400084F8410084F84200F3
:104BD00084F8430084F8440084F8450084F84600D3
:104BE00084F8470084F83D00002010BD0120704784
:104BF00080B584B00068B0F1804F19D040F2004118
:104C0000C4F2000188422AD00021C4F20101884286
:104C10003AD144F2E840C5F60200816841F0010152
:104C20008160806800F001000390039804B080BDAB
:104C300044F2E8400222C5F60200016841F0010199
:104C400001600068032100F00100029002981C201E
:104C5000FEF786FA1C20FEF77FFA04B080BD44F20E
:104C6000E8400122C5F60200016841F0020101603E
:104C70000068032100F00200019001981D20FEF75A
:104C80006FFA1D20FEF768FA04B080BD0000000036
:104C900090F83D1001291BD1022180F83D100168D8
:104CA00041F2FF70C4F200008142C86840F0010088
:104CB000C8600FDC40F2FF70C4F20000814217DCD4
:104CC000B1F1804F2BD040F20040C4F2000024E04C
:104CD0000120704740F2FF30C4F20100814212DC33
:104CE00041F60000C4F20000814218D0002012E01A
:104CF00040F60000C4F20000814210D040F60040AF
:104D0000C4F2000009E044F20000C4F20100814254
:104D100005D040F20040C4F2010081420BD10722CD
:104D20008868C0F2010202400020062A18BFB2F5CE
:104D3000803F00D17047086840F001000860002003
:104D4000704700000000000010B5044690F83C00D9
:104D500001284FF0020008BF10BD0B46012184F866
:104D60003C10882284F83D00CFF6CE72206881681E
:104D70001140816019686F290BDDB1F1101F17DA3E
:104D8000B1F5005F25DA70293FD0B1F5805F5AD0C8
:104D900039E02F2916DD4F2920DC302951D0402958
:104DA00031D15968DA6802F037FB2068402148E0C9
:104DB0002F22C0F2100291421BDCB1F1101F40D033
:104DC00020221CE0002918BF10293AD0202938D011
:104DD00019E025D0B1F5801F33D014E050292AD036
:104DE000602910D15968DA6802F02AFB2068602136
:104DF00027E03022C0F21002914222D04022C0F2BD
:104E0000100291421DD001201EE0D3E90121DB6890
:104E100002F00AF92068816841F07701816012E0B0
:104E2000D3E90121DB6802F0FFF82068816841F4D2
:104E30008041816007E05968DA6802F0EDFA206885
:104E4000502102F0FDF80020012184F83D100021DE
:104E500084F83C1010BD0000002857D02DE9F04325
:104E600081B0044690F83D000D4628B9002084F832
:104E70003C00204600F04CF8022084F83D002068F9
:104E80004BF6F872CFF6FE72816811408160211DE9
:104E900002F01AF820684FF6FF79D0F8088082698E
:104EA000D0F820C0AF69D5E9026122EA090246EADA
:104EB00007264FF6FC47BE43EF6911432A69314389
:104EC0002E6A41EA07216F69D5E9003E41EA0211E5
:104ED0002CF0AA0242EA0E0243EA080341EA063134
:104EE0008360816142EA07110162012084F8480071
:104EF00084F83E0084F83F0084F8440084F84500BC
:104F000084F83D00002001B0BDE8F0830120704727
:104F100080B586B040F200420068C4F20102002170
:104F200090420591CDE903110291019137D040F6ED
:104F30000001C4F20001884256D144F2E040C5F6B7
:104F40000200816841F004018160816801F0040180
:104F500000910099016841F008010160006800219A
:104F600000F00800009000984FF44050CDE9031184
:104F700040F600010190C5F6020102200290059062
:104F800001F5806001A9FDF77BFF1E2003210022AF
:104F9000FEF7E6F81E20FEF7DFF806B080BD44F20B
:104FA000E040C5F60200026942F0020202610269B5
:104FB00002F002020092009A026842F004020260CB
:104FC000006800F0040000900098C02001900220CA
:104FD000CDE902010320059040F600000491C5F6DA
:104FE000020001A9FDF74CFF06B080BD00000000E3
:104FF000704700000000000010B504460068016919
:10500000890744BFC1685FEA817140D420680169A3
:10501000490744BFC1685FEA417144D4206801690F
:10502000090744BFC1685FEA017149D4206801697A
:10503000C90644BFC1685FEAC1614DD420680169F7
:10504000C9071CBFC1685FEAC17152D120680169FC
:10505000090644BFC1685FEA016151D42068016953
:10506000C90544BFC1685FEA016150D42068016985
:10507000490644BFC1685FEA41614FD420680169B5
:10508000890644BFC1685FEA81614ED410BD6FF0EC
:105090000201016101212177806980074CD02046FF
:1050A000FFF7A6FF4EE06FF00401016102212177B6
:1050B000806910F4407F48D02046FFF799FF4AE00E
:1050C0006FF00801016104212177C069800745D094
:1050D0002046FFF78DFF47E06FF0100101610821C6
:1050E0002177C06910F4407F41D02046FFF780FF50
:1050F00043E06FF001010161204600F0E1F9A5E70E
:105100006FF0800101612046FFF77EFCA6E76FF497
:10511000807101612046FFF773FCA7E76FF0400143
:105120000161204600F0DCF9A8E76FF02001016181
:105130002046FFF76DFC10BD204600F051F82046D8
:1051400000F0E6F80020207760E7204600F048F8FD
:10515000204600F0DDF8002020775FE7204600F0D1
:105160003FF8204600F0D4F8002020775EE7204684
:1051700000F036F8204600F0CBF8002020775DE7FD
:1051800080B586B000220068C4F20102002190427E
:105190000591CDE903110291019101D006B080BDC6
:1051A00044F2E040C5F60200026842F010020260DC
:1051B000006800F01000009000984FF4206001900B
:1051C0000220CDE90201012001A9CDE9040041F24C
:1051D0000000C5F60200FDF753FE06B080BD0000DA
:1051E0007047000000000000B0B5044690F83C0095
:1051F000012801D10220B0BD0D464FEAB2010529B8
:105200004FF0010084F83C0048D8DFE801F0030BC0
:10521000131B23332068294601F01EFF206850F835
:10522000181F1EE02068294601F07AFF206850F818
:10523000181F26E02068294601F0CAFF206850F8B0
:105240001C1F0EE02068294602F01AF8206850F86A
:105250001C1F16E02068294602F056F8206850F816
:10526000541F41F008010160016821F00401016050
:1052700029690FE02068294602F08AF8206850F872
:10528000541F41F400610160016821F480610160F4
:10529000296909020268114301600020002184F895
:1052A0003C10B0BD0000000060B310B5044690F89B
:1052B0003D0028B9002084F83C00204600F024F886
:1052C000022084F83D002068211D01F0FDFD012031
:1052D00084F8480084F83E0084F83F0084F84000D9
:1052E00084F8410084F8420084F8430084F84400C4
:1052F00084F8450084F8460084F8470084F83D00AF
:10530000002010BD01207047704700000000000021
:10531000704700000000000010B5044659B1081F96
:105320004FEAB000032809D8DFE800F0020B0E11A5
:1053300004F13F000DE004F13E000AE004F14300F7
:1053400007E004F1400004E004F1410001E004F151
:105350004200007801280DD171B1081F4FEAB0005A
:1053600003280DD8DFE800F002101418022084F89A
:105370003F0014E0012010BD022084F83E000EE042
:10538000022084F843000AE0022084F8400006E08E
:10539000022084F8410002E0022084F842002068E4
:1053A000012201F031FE4FF6FF702168C4F20000C7
:1053B000814216DC40F2FF70C4F20000814240DD01
:1053C00040F60000C4F20000814267D040F6004081
:1053D000C4F20000814261D041F60000C4F2000036
:1053E0005AE043F6FF70C4F2010081420EDD44F240
:1053F0000000C4F20100814213D044F60000C4F260
:10540000010081420DD044F2004006E00020C4F2C9
:105410000100814205D040F20040C4F20100814207
:1054200048D141F2FF704A6CC4F20000814242F45C
:10543000004048640DDC40F2FF70C4F2000081427D
:1054400015DCB1F1804F29D040F20040C4F20000D9
:1054500022E040F2FF30C4F20100814212DC41F64A
:105460000000C4F20000814218D0002012E040F693
:105470000000C4F20000814210D040F60040C4F2A7
:10548000000009E044F20000C4F20100814205D0AE
:1054900040F20040C4F2010081420BD1072288682B
:1054A000C0F2010202400020062A18BFB2F5803F78
:1054B00000D110BD086840F001000860002010BD58
:1054C00040F2E031C2F20041884218BF704780B517
:1054D000FBF7F6FCBDE880407047000000000000CC
:1054E000704700000000000090F88010012901D1F1
:1054F000022070472421C0F88410026813681168E4
:1055000023F0005321F00101116000214166136076
:105510002022C0F8842080F88010084670470000E0
:10552000704700000000000070470000000000000D
:10553000B0B5044690F88000012801D10220B0BD2A
:10554000012084F880002420C4F8840020680568C5
:10555000026822F001020260826822F06062114358
:105560008160204601F0A8FF206805602020C4F873
:105570008400002084F88000B0BD0000000000001E
:10558000B0B5044690F88000012801D10220B0BDDA
:10559000012084F880002420C4F884002068056875
:1055A000026822F001020260826822F06042114328
:1055B0008160204601F080FF206805602020C4F84B
:1055C0008400002084F88000B0BD000000000000CE
:1055D000704700000000000070470000000000005D
:1055E0007047000000000000B0B50368044640F6B4
:1055F0002F00D9691D680840D3F808E020280CD195
:1056000005F020020EF08050801806D0216F00298E
:1056100000F0B18020468847B0BD40F60F0008403A
:1056200000F09080012040F22012C1F20000C0F290
:1056300000420EEA000C05EA020010EB0C0000F03C
:105640008180C80718BF15F4807007D00120186248
:10565000D4F88C0040F00100C4F88C0088070EF0EC
:10566000010208D53AB102201862D4F88C0040F04B
:105670000400C4F88C00480708D53AB10420186229
:10568000D4F88C0040F00200C4F88C0008070CD558
:1056900005F0200050EA0C0007D008201862D4F86A
:1056A0008C0040F00800C4F88C0008050BD515F0FC
:1056B000806008D04FF400601862D4F88C0040F08D
:1056C0002000C4F88C00D4F88C00002853D011F0CE
:1056D000200009D005F020000EF08051401803D0C2
:1056E000216F09B1204688472068D4F88C1001F05A
:1056F0002801806800F04000401800F0A980204692
:1057000002F066F820688068400640F1918000BF92
:10571000206850E8020F216820F0400041E80202B2
:10572000002AF5D1E06F002800F0828047F2616125
:10573000C0F600010165FBF78BFFE0B1E06F016D82
:105740008847B0BD05EA010CE26E5FEACC603CD54B
:10575000012A3AD1102018629868400641D4B4F862
:105760005C00B4F85E10B4F85E20002A1CBF401A3A
:105770005FEA004100D1B0BD216851E8001F2268F6
:1057800021F4907142E80013002BF5D14FF6FE7121
:10579000CEF6FF71226852E8022F23680A4043E8E0
:1057A0000225002DF6D12021C4F888100021E166E1
:1057B000216700BF216851E8001F226821F0100115
:1057C00042E80013002BF5D1F4E0C80223D51EF403
:1057D000800020D04FF4801018622046FFF7FCFEB6
:1057E000B0BDE06F40F20F42C4F202020168914284
:1057F00035DC6F22C4F20202914249DC3F22C4F23E
:10580000020291426ADC1022C4F20202914200F0CC
:105810008880282281E008060ED505F080000EF46D
:105820000002801808D0616F00297FF4F3AEA2E770
:105830002046FFF7D5FEB0BD5FEA4C6024D40802D5
:1058400041D515F080403ED02046FFF7C1FEB0BDE7
:105850002046FFF7C5FE0020C4F88C00B0BD40F222
:105860006F42C4F2020291421EDC40F23F42C4F297
:105870000202914239DC40F21042C4F2020291422B
:105880004FD040F2284248E0204601F0D1FFB0BDA1
:105890009F22C4F20202914230DC7022C4F2020262
:1058A00091423ED0882238E040F29F42C4F2020288
:1058B00091422ADC40F27042C4F20202914230D09E
:1058C00040F2884229E0C8017FF555AFB5F1FF3FAE
:1058D000C8BFB0BD2046FFF727FEB0BD4022C4F2CE
:1058E000020291421DD0582217E040F24042C4F219
:1058F0000202914215D040F258420EE0A022C4F2BA
:10590000020291420DD0B82207E040F2B842C4F240
:105910000202914205D040F2A042C4F2020291423A
:1059200001D1E16F0968043109688AB2002A3FF4A5
:1059300022AFB4F85C309A42BFF41DAFA4F85E10F9
:10594000C069B0F5807F30D0206850E8000F216832
:1059500020F4807041E80002002AF5D1206850E868
:10596000020F216820F0010041E80202002AF5D16F
:10597000206850E8020F216820F0400041E8020250
:10598000002AF5D12020C4F888000020E06600BF7E
:10599000206850E8000F216820F0100041E8000264
:1059A000002AF5D1E06FFBF773FBB4F85C00B4F8A4
:1059B0005E10401A81B22046FFF7B2FDB0BD000074
:1059C00010B5B0B10446D0F8840028B9002084F89E
:1059D0008000204600F028F82420C4F884002068C5
:1059E000016821F001010160204601F04DFF01280E
:1059F00001D1012010BDA06A10B1204601F088FD40
:105A00002068416821F490414160816821F02A01B9
:105A10008160016841F001010160204601F0E8FD6C
:105A200010BD0000000000002DE9F043B5B00021DA
:105A30000446CDE93311CDE93111309101A8BC21E3
:105A4000FAF77EFC44F6FF712068C4F20001884238
:105A500040F3848041F20001C4F20101884200F069
:105A6000FD8047F60041C4F20001884200F02A811F
:105A700045F20001C4F20001884240F0AC8101A867
:105A80000225019500261E96FDF7DEFC08B1FBF706
:105A900007FA44F2E04040F21008C5F60200C4F2F2
:105AA0000208816841F480118160816801F48011ED
:105AB00000910099016841F002010160006830A97D
:105AC00000F00200009000984FF4405061C10E2099
:105AD000349040F2004030A9C5F602003396FDF73D
